:040000000C946300F9
:1400540000C07F440AD7234000007A440000C8426325723FD0
:14006800FF050238BD3786B56636C64500007A4400000000B2
:14007C0014AF183F0000803F00000000000000000000000097
:14009000000000000000005500000000000000000000000007
:1400A4000000000000000000FF000000000000000000000049
:0D00B8000000000000000000000001010138
:1400C600CFE5D4E0CDBFDEBFCE51D0400AEA08830024E1EAF8
:1400DA00F0E010E0E13AF10711F00192FBCF0083E4E8F0E0C2
:1400EE00A0E6B0E010E000E00BBFE53CF10721F0C895319600
:140102000D92F9CF0E94F600FFCF87E886B980EC87B9089525
:1401160087B1807F87B9809160008F7027B0282A27B8339A19
:14012A00369A08950E944A07077087B1807F802B87B9369AF8
:14013E00349BFECF349AA4B0C5B01C2D0A2D0A5010400C94B0
:14015200240733980895AA92BA9258010CE510E00E94620739
:140166001801290108E510E00E9462073801490185010E94AF
:14017A0044083A932A931A930A93830194010E94030A810107
:14018E0092010E94EB091801290104E510E00E9462073A9340
:1401A2002A931A930A93810192010E947108B990A9900895F3
:1401B6000E944F07442755270CC06627772703C000006F5FCE
:1401CA007F4F6437E4E07E07C8F34F5F5F4F4017510788F32E
:1401DE000C9454078F9A82B3807882BB089529D026C00E9461
:1401F200FA042090720020FE07C029D0809172008E7F809358
:1402060072006DD32090720021FE07C01ED0809172008D7FAD
:14021A008093720062D32090720022FE07C013D080917200A7
:14022E008B7F8093720057D304E610E0BDDFD9CF08950E94A6
:14024200F5040E94D2040E94860078940895AA92BA9220902E
:14025600610030906200232C33242092740020906100309074
:14026A006200209275002090630030906400232C3324209268
:14027E007600209063003090640020927700209065003090C1
:140292006600232C3324209278002090650030906600209235
:1402A60079002090670030906800232C332420927A0020900A
:1402BA0067003090680020927B002090690030906A00232CE2
:1402CE00332420927C002090690030906A0020927D00209075
:1402E2006B0030906C00232C332420927E0020906B003090C0
:1402F6006C0020927F0020906D0030906E00232C33242092B4
:14030A00800020906D0030906E002092810020906F00309002
:14031E007000232C33242092820020906F0030907000209280
:1403320083006DD21801232C33242092840067D200938500AF
:1403460099D258011501232C33242092860092D25801A092FC
:14035A008700B990A99008953A932A930E94440768016C9706
:14036E00E8A8F9A8AAA8BBA800E810E00E946207180129016F
:1403820086010E9444083A932A931A930A93810192010E9467
:14039600EB09180129010CA51DA50E9444083A932A931A9384
:1403AA000A93810192010E94F9070C871D872E873F8700E851
:1403BE0010E00E946207180129010EA11FA10E9444083A93C3
:1403D2002A931A930A93810192010E94EB09180129010EA56F
:1403E6001FA50E9444083A932A931A930A93810192010E94C6
:1403FA00F907088B198B2A8B3B8B00E810E00E946207180141
:14040E00290108A519A50E9444083A932A931A930A93810101
:1404220092010E94EB091801290187010E9444083A932A935A
:140436001A930A93810192010E94F9070C831D832E833F830F
:14044A0000E810E00E946207180129010AA51BA50E9444081B
:14045E003A932A931A930A93810192010E94EB0918012901C8
:1404720085010E9444083A932A931A930A93810192010E9477
:14048600F907088719872A873B870CE710E00E9462070C8B3B
:14049A001D8B2E8B3F8B08E710E00E946207088F198F2A8F41
:1404AE003B8F08E710E00E946207088319832A833B8304E709
:1404C20010E00E9462071801290104E710E00E9462073801C9
:1404D6004901088919892A893B89CE0104969A938A930E94C9
:1404EA00E109A801B9010C851D852E853F85CE0108969A936D
:1404FE008A930E94F6098A019B010E940408830194010E949C
:14051200EB09380149010C811D812E813F81CE0104969A932E
:140526008A930E94E109A801B901088519852A853B85CE014C
:14053A0008969A938A930E94F6098A019B010E94EB078301E5
:14054E0094010E947108CE0144969A938A930E94F6098101D3
:1405620092010E94EB091801290100E710E00E9462073A936A
:140576002A931A930A93810192010E947108088319832A8366
:14058A003B830CE610E00E946207CE019A938A930E94E1090D
:14059E00CE019A938A930E94E109CE019A938A930E94E109FF
:1405B2001801290108E610E00E946207CE019A938A930E944E
:1405C600E109CE019A938A930E94F609810192010E94E007DF
:1405DA001801290104E610E00E946207CE019A938A930E942A
:1405EE00F609810192010E94E007088319832A833B8300E6E4
:1406020010E00E946207CE019A938A930E94E1090E94120888
:140616006C960E943907229608953A932A930E9448076801B3
:14062A006497ECA0FDA0AEA0BFA000E810E00E9462071801EF
:14063E00290186010E9444083A932A931A930A938101920120
:140652000E94EB091801290108A119A10E9444083A932A93E0
:140666001A930A93810192010E94F907088319832A833B83ED
:14067A0000E810E00E946207180129010A8D1B8D0E94440819
:14068E003A932A931A930A93810192010E94EB091801290196
:1406A2000AA11BA10E9444083A932A931A930A938101920106
:1406B6000E94F9070C831D832E833F8300E810E00E94620709
:1406CA00180129010C8D1D8D0E9444083A932A931A930A93D4
:1406DE00810192010E94EB091801290187010E9444083A93D7
:1406F2002A931A930A93810192010E94F907088719872A8756
:140706003B8700E810E00E946207180129010E8D1F8D0E940E
:14071A0044083A932A931A930A93810192010E94EB091801E7
:14072E00290185010E9444083A932A931A930A938101920130
:140742000E94F9070C871D872E873F8708E710E00E94620765
:14075600088B198B2A8B3B8B00E810E00E94620718012901B7
:14076A000C811D812E813F81CE0108969A938A930E94E1099E
:14077E0038014901088119812A813B81CE010C969A938A939F
:140792000E94F609830194010E940408810192010E94EB0940
:1407A60018012901088119812A813B81CE0108969A938A93BB
:1407BA000E94E109380149010C811D812E813F81CE010C9611
:1407CE009A938A930E94F609830194010E94EB07810192016A
:1407E2000E947108088B198B2A8B3B8B00E610E00E94620755
:1407F600CE0140969A938A930E94E1090E94120864960E941C
:14080A00290722960895AA92BA922C972090690030906A00C7
:14081E003B862A8620906B0030906C003986288620906D0084
:1408320030906E003F822E8220906F00309070003D822C8257
:1408460020906100309062003B822A822090630030906400CB
:14085A003982288220916500309166000091670010916800E7
:14086E0079DD58012C96B990A9900895AA92BA922C972090EB
:14088200690030906A003B862A8620906B0030906C00398658
:14089600288620906D0030906E003F822E8220906F00309005
:1408AA0070003D822C8220906100309062003B822A82209011
:1408BE0063003090640039822882209165003091660000916C
:1408D200670010916800A3DE58012C96B990A9900895009156
:1408E60073000E94DB04009174000E94DB04009175000E94DC
:1408FA00DB04009176000E94DB04009177000E94DB04009169
:14090E0078000E94DB04009179000E94DB0400917A000E94A4
:14092200DB0400917B000E94DB04009184000E94DB0400912E
:1409360085000E94DB04009186000E94DB04009187000E9455
:14094A00DB0400917C000E94DB0400917D000E94DB0400910C
:14095E007E000E94DB0400917F000E94DB04009180000E9442
:14097200DB04009181000E94DB04009182000E94DB040091DA
:1409860083000E94DB04009188000E94DB04009188000E9404
:14099A00DB04009188000C94DB04222420BC87E689B988E198
:1409AE008AB986E880BD08955D9BFECF0CB908955F9BFECFBC
:1409C2000CB108950BB100780895AA92BA92580104C0F5015B
:1409D60001915F01EDDFF50120802220C1F7B990A9900895A0
:1409EA0081B3837F81BBA49808950E944607829B03C041E0BE
:1409FE0050E002C044275527E42E839B03C041E050E002C006
:140A120044275527C42E9C9B03C041E050E002C04427552703
:140A2600A42EEE2059F480919E00813039F420908900222087
:140A3A0019F48AE08093890080E020908900821508F092C01B
:140A4E00822D815080938900882309F08BC0829989C02224DF
:140A620020929C003AC000270E94970020908C0030908D004F
:140A7600200E311E30928D0020928C0001E00E949700209098
:140A8A008E0030908F00200E311E30928F0020928E0002E08B
:140A9E000E9497002090900030909100200E311E30929100AA
:140AB2002092900003E00E949700A801209092003090930094
:140AC600200E311E309293002092920080919C008F5F809358
:140ADA009C0080919C008A3010F22AE030E000918C0010912B
:140AEE008D000E940A0710936200009361002AE030E0009110
:140B02008E0010918F000E940A0710936400009363002AE067
:140B160030E000919000109191000E940A0710936600009319
:140B2A0065002AE030E000919200109193000E940A0710938B
:140B3E006800009367002224332430928D0020928C00309255
:140B52008F0020928E00309291002092900030929300209224
:140B6600920080917200816080937200CC2059F480919F0017
:140B7A00813039F420908A00222019F48AE080938A0080E099
:140B8E0020908A00821508F0ACC0822D815080938A00882356
:140BA20009F0A5C08399A3C0222420929C003AC000270E940B
:140BB600970020908C0030908D00200E311E30928D0020928D
:140BCA008C0001E00E94970020908E0030908F00200E311E67
:140BDE0030928F0020928E0002E00E94970020909000309057
:140BF2009100200E311E309291002092900003E00E94970030
:140C0600A8012090920030909300200E311E30929300209218
:140C1A00920080919C008F5F80939C0080919C008A3010F281
:140C2E00222420929D0041C040919D005527440F551F8CE8F7
:140C420090E0FA01E80FF91F008111812AE030E00E940A0744
:140C560084E990E0FA01E80FF91F11830083E0919D00FF2758
:140C6A00EE0FFF1FE80FF91F4081518182EC91E084179507A3
:140C7E00B8F44632E2E05E0798F440919D005527440F551FDA
:140C920084E990E0FA01E80FF91F2080318089E690E0FA013C
:140CA600E80FF91F3182208280919D008F5F80939D00809179
:140CBA009D00843008F4BACF2224332430928D0020928C0026
:140CCE0030928F0020928E0030929100209290003092930097
:140CE2002092920080917200826080937200AA2059F48091A8
:140CF600A000813039F420908B00222019F48AE080938B00DA
:140D0A0080E020908B00821508F060C0822D815080938B006D
:140D1E00882309F059C09C9957C0222420929C0020C000271D
:140D32000E94970020908C0030908D00200E311E30928D001F
:140D460020928C0001E00E949700A80120908E0030908F000B
:140D5A00200E311E30928F0020928E0080919C008F5F8093C9
:140D6E009C0080919C008A30E0F22AE030E000918C001091C4
:140D82008D000E940A0710936A00009369002AE030E0009169
:140D96008E0010918F000E940A0710936C0000936B00222485
:140DAA00332430928D0020928C0030928F0020928E003092FE
:140DBE0091002092900030929300209292008091720084604E
:140DD20080937200E0929E00C0929F00A092A0000C943007DE
:140DE60000270DC089E690E0E02FFF27EE0FFF1FE80FF91FC7
:140DFA0022243324318220820395043088F322242092720042
:140E0E000895689401C0E894EA92FA928A93EE24FF2480E13F
:140E2200000F111FEE1CFF1CE216F30618F0E21AF30A0395CE
:140E36008A95A1F716F40E2D1F2D8991F990E9900895A9906E
:140E4A00B990C990D9900895A990B990C990D990E990F990A6
:140E5E000895A990B990C990D990E990F9904991599108953C
:140E7200A990B990C990D990E990F99049915991699179915E
:140E860008957A936A935A934A93FA92EA92DA92CA92BA92CB
:140E9A00AA9208957A936A935A934A9308954991599169913C
:140EAE007991089500951095209530950F5F1F4F2F4F3F4FED
:140EC2000895EA93FA930A92E02FF12FC895002D3196C895FC
:140ED600102D3196C895202D3196C895302D0990F991E9913C
:140EEA000895689401C0E8940E9470090E94020909F448C051
:140EFE00E62CD52CC42CB32EA22E912E802E00811181228109
:140F120033810E94020909F444C0842D952D8C199D09B9F002
:140F260072F49095809501964C2C5D2C8831B8F53595279593
:140F3A00179507950197D1F708C0883118F5B594A7949794BE
:140F4E0087940197D1F766242EF0080D191D2A1D3B1D09C0B9
:140F6200801A910AA20AB30A082D192D2A2D3B2D332322F437
:140F76000E94590780E8682E0E942B0902C00E9460090E9422
:140F8A007F0908950081118122813381C6F70E940A09A9F3B6
:140F9E0080E83827F2CF082D192D2A2D3B2D4C2C5D2C6E2CE2
:140FB20033233AF70E94590780E8682EE2CFFA93EA93EC2FCE
:140FC600FD2F32960E947807E991F99124960895FA93EA939D
:140FDA00EC2FFD2F32960E947807E991F9913B832A831983C8
:140FEE0008830895FA93EA93EC2FFD2F32960E947607E99115
:14100200F99124960895FA93EA93EC2FFD2F32960E947607C1
:14101600E991F9913B832A831983088308954A925A926A92CF
:14102A008A930E94120911F15520E2F08FE14816C0F487E1A5
:14103E004816D1F058F4419489EE481A05C03595279517958E
:1410520007954A94D1F70EC087E1481A000F111F221F331FDE
:141066004A94D1F705C03FE7232F132F032F04C0662011F0D4
:14107A000E94590789916990599049900895689401C0E894B5
:14108E002227332746F017FD209517FD309503C0689401C053
:1410A200E8944A925A926A928A9387E1482E5524662436F0D6
:1410B600332322F40E94590780E8682E0E942B0989916990D1
:1410CA00599049900895FA93EA93EA81FB8127D0E991F991C7
:1410DE0022960895FA93EA93EC2FFD2F32961DD0E991F9919F
:1410F20024960895FA93EA93EA81FB8114D0E991F9913983FE
:1411060028831A930A930895FA93EA93EC2FFD2F329607D053
:14111A00E991F9913B832A831983088308950A921A922A928A
:14112E003A920E9470093A932A931A930A930081118122813C
:1411420033810E94120909F457C0E62CD52CC42CB32EA22E60
:14115600912E802E09911991299139910E941209A1F16E246F
:14116A004C185D0880E8481653060CF033C081E848168FEF55
:14117E0058060CF436C080E23324232E122E012E302F2227E8
:141192001127002726941794079437952795000F111F221FE2
:1411A600331F001C111C221C331C28F0081819082A083B083F
:1411BA0004C0080C191C2A1C3B1C0AF001608A9551F70E9413
:1411CE002B090E947F09399029901990099008950FEF102F11
:1411E2002FE73FE7662099F30E945907F0CF0027102F202F35
:1411F600302FEBCF0991199129913991EDCF0FD029F06620CA
:14120A0011F00E94590798940895002329F4112319F422233E
:14121E0009F433230895F7DF99F08A93632E80E86822220F9C
:14123200331F432E8FE7481A55248827580A269530E8232B62
:1412460033278991989408954424552466240895DEDF09F495
:14125A000895AA93BA93D2019A938A938EE790E0332349F0C8
:14126E003695279517950795A817B907CCF41196F5CF8095DE
:14128200909501962223BAF0000F111F221FA817B90714F0AA
:141296001197F6CF0027112722273327899199912D01B99119
:1412AA00A991089533270FEF102F2FE7322F899199912D01D9
:1412BE0002C0AA93BA93A7DF49F0D201A158BF4F2D01342DA8
:1412D200220F369527953629B991A99108954A925A926A920C
:1412E6007A928A929A92AA92BA92CA92DA92EA92FA928A932B
:1412FA009A93089599918991F990E990D990C990B990A9908C
:14130E0099908990799069905990499008950E947009AA93D0
:14132200BA930E941209E1F1E62CD52CC42CB32EA22E912E68
:14133600802E00811181228133810E94120971F16E244C0C82
:14134A005D1C80E84816530664F581E848168FEF58066CF19E
:14135E00A29EB12DA02D919E912D802DA09E800D911DA31FBB
:14137200B31F829E800D911DA31FB31F929E900DA11DB31F49
:14138600A19E900DA11DB31F2B2F1A2F092F880F001F111F26
:14139A00221F331F0E942B09B991A9910E947F0908950FEF8D
:1413AE00102F2FE78FE7482EF5CF0027102F202F302FF0CF53
:1413C200FA93EA93EA81FB810E948E09E991F9912296089594
:1413D600FA93EA93EC2FFD2F32960E948E09E991F9912496F3
:1413EA000895FA93EA93EA81FB810E948E09E991F991398368
:1413FE0028831A930A930895FA93EA93EC2FFD2F32960E948E
:101412008E09E991F9913B832A8319830883089500
:00000001FF
