:040000000C946500F7
:1400540000C07F440AD7234000007A44B48E6A3F1E6B26C0B9
:140068000000C842A44EC64500007A44C8284F3B787F703F9F
:14007C000000000014AF183F0000803F000000000000000097
:14009000000000000000000000000055000000000000000007
:1400A400000000000000000000000000FF0000000000000049
:1100B800000000000000000000000000000001010134
:1400CA00CFE5D4E0CDBFDEBFCE51D0400AEA08830024E1EAF4
:1400DE00F0E010E0E13AF10711F00192FBCF0083E8E8F0E0BA
:1400F200A0E6B0E010E000E00BBFE93CF10721F0C8953196F8
:140106000D92F9CF0E94F800FFCF87E886B980EC87B908951F
:14011A0087B1807F87B9809160008F7027B0282A27B8339A15
:14012E00369A08950E94E807077087B1807F802B87B9369A56
:14014200349BFECF349AA4B0C5B01C2D0A2D0A5010400C94AC
:14015600CD0733980895AA92BA9258010CE510E00E940008ED
:14016A001801290108E510E00E9400083801490185010E940C
:14017E00D4083A932A931A930A93830194010E94930A8101E3
:1401920092010E947B0A1801290104E510E00E9400083A930C
:1401A6002A931A930A93810192010E940109B990A99008955E
:1401BA000E94ED07442755270CC06627772703C000006F5F2C
:1401CE007F4F6437E4E07E07C8F34F5F5F4F4017510788F32A
:1401E2000C94F2078F9A82B3807882BB089529D026C00E94BF
:1401F600A3052090720020FE07C029D0809172008E7F8093AA
:14020A00720014D42090720021FE07C01ED0809172008D7F01
:14021E008093720009D42090720022FE07C013D080917200FB
:140232008B7F80937200FED304E610E0BDDFD9CF08950E94FB
:140246009E050E947B050E94880078940895AA92BA922090D4
:14025A00610030906200232C33242092740020906100309070
:14026E006200209275002090630030906400232C3324209264
:140282007600209063003090640020927700209065003090BD
:140296006600232C3324209278002090650030906600209231
:1402AA0079002090670030906800232C332420927A00209006
:1402BE0067003090680020927B002090690030906A00232CDE
:1402D200332420927C002090690030906A0020927D00209071
:1402E6006B0030906C00232C332420927E0020906B003090BC
:1402FA006C0020927F0020906D0030906E00232C33242092B0
:14030E00800020906D0030906E002092810020906F003090FE
:140322007000232C33242092820020906F003090700020927C
:14033600830014D31801232C3324209284000ED3009385005B
:14034A0040D358011501232C33242092860039D35801A092A8
:14035E008700B990A99008953A932A930E94E6076801A49728
:14037200ECA8FDA8AEA8BFA804E810E00E94000818012901B8
:1403860086010E94D4083A932A931A930A93810192010E94D3
:14039A007B0A1801290108A919A90E94D4083A932A931A935F
:1403AE000A93810192010E949708088B198B2A8B3B8B04E8AA
:1403C20010E00E940008180129010AA51BA50E94D4083A9390
:1403D6002A931A930A93810192010E947B0A180129010AA9DA
:1403EA001BA90E94D4083A932A931A930A93810192010E9432
:1403FE0097080C8B1D8B2E8B3F8B04E810E00E9400081801EB
:1404120029010CA51DA50E94D4083A932A931A930A93810165
:1404260092010E947B0A1801290187010E94D4083A932A9335
:14043A001A930A93810192010E9497080C831D832E833F836C
:14044E0004E810E00E940008180129010EA51FA50E94D408DC
:140462003A932A931A930A93810192010E947B0A1801290133
:1404760085010E94D4083A932A931A930A93810192010E94E3
:14048A009708088719872A873B8700E810E00E940008088F04
:14049E00198F2A8F3B8F0CE710E00E9400080C8F1D8F2E8F8E
:1404B2003F8F0CE710E00E9400080C871D872E873F870CE736
:1404C60010E00E94000808A319A32AA33BA30CE710E00E94F1
:1404DA000008088319832A833B830C891D892E893F89CE01EB
:1404EE0004969A938A930E94710A18012901088919892A89D0
:140502003B89CE0108969A938A930E94860A810192010E9481
:140516009708180129010C811D812E813F81CE0104969A93BF
:14052A008A930E94710A38014901088519852A853B85CE0197
:14053E0008969A938A930E94860A830194010E9489088101C1
:1405520092010E940109CE0148969A938A930E94710A0883B7
:1405660019832A833B8308E710E00E940008CE019A938A93D8
:14057A000E94710A1801290104E710E00E9400083A932A93FE
:14058E001A930A93810192010E947E08088319832A833B8340
:1405A20000E710E00E9400081801290100E710E00E94000800
:1405B600CE019A938A930E94860A810192010E947B0A180191
:1405CA0029010CE610E00E9400083A932A931A930A93810111
:1405DE0092010E9401090C871D872E873F8708E610E00E9498
:1405F2000008CE010C969A938A930E94710A0E94A208A4968F
:140606000E94D207229608953A932A930E94E6076801A09757
:14061A00E8A8F9A8AAA8BBA804E810E00E940008180129011D
:14062E0086010E94D4083A932A931A930A93810192010E9428
:140642007B0A180129010CA51DA50E94D4083A932A931A93B4
:140656000A93810192010E949708088B198B2A8B3B8B04E8FF
:14066A0010E00E940008180129010EA11FA10E94D4083A93E5
:14067E002A931A930A93810192010E947B0A180129010EA52F
:140692001FA50E94D4083A932A931A930A93810192010E9487
:1406A60097080C8B1D8B2E8B3F8B04E810E00E940008180140
:1406BA00290108A519A50E94D4083A932A931A930A938101C3
:1406CE0092010E947B0A1801290187010E94D4083A932A938B
:1406E2001A930A93810192010E949708088319832A833B83D2
:1406F60004E810E00E940008180129010AA51BA50E94D4083A
:14070A003A932A931A930A93810192010E947B0A1801290188
:14071E0085010E94D4083A932A931A930A93810192010E9438
:1407320097080C831D832E833F8300E810E00E940008088F59
:14074600198F2A8F3B8F0CE710E00E9400080C8F1D8F2E8FE3
:14075A003F8F0CE710E00E940008088719872A873B870CE79B
:14076E0010E00E9400080C871D872E873F87088919892A8945
:140782003B89CE019A938A930E94710A180129010C891D89EB
:140796002E893F89CE0104969A938A930E94860A81019201D6
:1407AA000E947E0818012901088119812A813B81CE019A934A
:1407BE008A930E94710A380149010C811D812E813F81CE0101
:1407D20004969A938A930E94860A830194010E94890881012F
:1407E60092010E940109CE0148969A938A930E94710A08871D
:1407FA0019872A873B8704E610E00E940008CE0108969A93BA
:14080E008A930E94710ACE0108969A938A930E94710A1801AF
:14082200290100E610E00E940008CE0108969A938A930E94BF
:14083600860A810192010E947E08088719872A873B870C89AA
:14084A001D892E893F89CE019A938A930E94710A18012901FC
:14085E00088919892A893B89CE0104969A938A930E94860AF7
:14087200810192010E94970818012901088119812A813B814F
:14088600CE019A938A930E94710A380149010C811D812E81CB
:14089A003F81CE0104969A938A930E94860A830194010E94EA
:1408AE008908810192010E940109CE0148969A938A930E944B
:1408C200710A0C871D872E873F8708E710E00E940008CE019D
:1408D6000C969A938A930E94710A1801290104E710E00E9445
:1408EA0000083A932A931A930A93810192010E947E080C874E
:1408FE001D872E873F8704E810E00E9400081801290104E812
:1409120010E00E940008CE010C969A938A930E94710ACE0190
:1409260008969A938A930E940B09810192010E947B0A0C8F48
:14093A001D8F2E8F3F8F08E610E00E940008CE014C969A930C
:14094E008A930E94710A0E94A208A0960E94D2072296089509
:14096200AA92BA922C972090690030906A003B862A862090D2
:140976006B0030906C003986288620906D0030906E003F825D
:14098A002E8220906F00309070003D822C822090610030901C
:14099E0062003B822A8220906300309064003982288220912D
:1409B2006500309166000091670010916800D2DC58012C96DB
:1409C600B990A9900895AA92BA922C972090690030906A0070
:1409DA003B862A8620906B0030906C003986288620906D00C7
:1409EE0030906E003F822E8220906F00309070003D822C829A
:140A020020906100309062003B822A8220906300309064000D
:140A1600398228822091650030916600009167001091680029
:140A2A00F1DD58012C96B990A9900895009173000E94840581
:140A3E00009174000E948405009175000E948405009176003C
:140A52000E948405009177000E948405009178000E948405FE
:140A6600009179000E94840500917A000E94840500917B0005
:140A7A000E948405009184000E948405009185000E948405BC
:140A8E00009186000E948405009187000E94840500917C00C2
:140AA2000E94840500917D000E94840500917E000E948405A2
:140AB60000917F000E948405009180000E94840500918100A3
:140ACA000E948405009182000E948405009183000E94840570
:140ADE00009188000E948405009188000E9484050091880063
:140AF2000C948405222420BC87E689B988E18AB986E880BD9F
:140B060008955D9BFECF0CB908955F9BFECF0CB108950BB13A
:140B1A0000780895AA92BA92580104C0F50101915F01EDDF59
:140B2E00F50120802220C1F7B990A990089581B3837F81BB92
:140B4200A49808950E94E407829B03C041E050E002C04427DB
:140B56005527E42E839B03C041E050E002C044275527C42E30
:140B6A009C9B03C041E050E002C044275527A42EEE2059F456
:140B7E0080919E00813039F420908900222019F48AE08093D1
:140B9200890080E020908900821508F092C0822D81508093B9
:140BA6008900882309F08BC0829989C0222420929C003AC0D1
:140BBA0000270E94990020908C0030908D00200E311E3092FD
:140BCE008D0020928C0001E00E94990020908E0030908F009F
:140BE200200E311E30928F0020928E0002E00E949900209024
:140BF600900030909100200E311E309291002092900003E015
:140C0A000E949900A8012090920030909300200E311E30921E
:140C1E0093002092920080919C008F5F80939C0080919C00F4
:140C32008A3010F22AE030E000918C0010918D000E94B30731
:140C460010936200009361002AE030E000918E0010918F0038
:140C5A000E94B30710936400009363002AE030E000919000F2
:140C6E00109191000E94B30710936600009365002AE030E0C9
:140C820000919200109193000E94B3071093680000936700A6
:140C96002224332430928D0020928C0030928F0020928E008F
:140CAA00309291002092900030929300209292008091720085
:140CBE00816080937200CC2059F480919F00813039F4209045
:140CD2008A00222019F48AE080938A0080E020908A008215FD
:140CE60008F0ACC0822D815080938A00882309F0A5C0839954
:140CFA00A3C0222420929C003AC000270E94990020908C0057
:140D0E0030908D00200E311E30928D0020928C0001E00E94F7
:140D2200990020908E0030908F00200E311E30928F00209217
:140D36008E0002E00E9499002090900030909100200E311EF0
:140D4A00309291002092900003E00E949900A80120909200F7
:140D5E0030909300200E311E309293002092920080919C006B
:140D72008F5F80939C0080919C008A3010F2222420929D00D2
:140D860041C040919D005527440F551F8CE890E0FA01E80FD1
:140D9A00F91F008111812AE030E00E94B30784E990E0FA01CC
:140DAE00E80FF91F11830083E0919D00FF27EE0FFF1FE80FC5
:140DC200F91F4081518182EC91E084179507B8F44632E2E076
:140DD6005E0798F440919D005527440F551F84E990E0FA018F
:140DEA00E80FF91F2080318089E690E0FA01E80FF91F3182F9
:140DFE00208280919D008F5F80939D0080919D00843008F495
:140E1200BACF2224332430928D0020928C0030928F00209216
:140E26008E00309291002092900030929300209292008091EB
:140E3A007200826080937200AA2059F48091A000813039F425
:140E4E0020908B00222019F48AE080938B0080E020908B0063
:140E6200821508F060C0822D815080938B00882309F059C0F2
:140E76009C9957C0222420929C0020C000270E949900209096
:140E8A008C0030908D00200E311E30928D0020928C0001E090
:140E9E000E949900A80120908E0030908F00200E311E309290
:140EB2008F0020928E0080919C008F5F80939C0080919C0066
:140EC6008A30E0F22AE030E000918C0010918D000E94B307CB
:140EDA0010936A00009369002AE030E000918E0010918F0092
:140EEE000E94B30710936C0000936B002224332430928D009B
:140F020020928C0030928F0020928E00309291002092900077
:140F1600309293002092920080917200846080937200E092D0
:140F2A009E00C0929F00A092A0000C94D90700270DC089E66F
:140F3E0090E0E02FFF27EE0FFF1FE80FF91F22243324318280
:140F520020820395043088F32224209272000895689401C0DE
:140F6600E894EA92FA928A93EE24FF2480E1000F111FEE1CF7
:140F7A00FF1CE216F30618F0E21AF30A03958A95A1F716F4FD
:140F8E000E2D1F2D8991F990E9900895A990B990C990D990CB
:140FA2000895A990B990C990D990E990F9900895A990B99039
:140FB600C990D990E990F9904991599108957A936A935A930B
:140FCA004A93FA92EA92DA92CA92BA92AA9208957A936A9337
:140FDE005A934A9308954991599169917991089500951095F9
:140FF200209530950F5F1F4F2F4F3F4F0895EA93FA930A9246
:14100600E02FF12FC895002D3196C895102D3196C895202D4B
:14101A003196C895302D0990F991E9910895689401C0E894CE
:14102E000E94000A0E94920909F448C0E62CD52CC42CB32EDC
:14104200A22E912E802E00811181228133810E94920909F4B9
:1410560044C0842D952D8C199D09B9F072F4909580950196E4
:14106A004C2C5D2C8831B8F535952795179507950197D1F7DD
:14107E0008C0883118F5B594A794979487940197D1F766241C
:141092002EF0080D191D2A1D3B1D09C0801A910AA20AB30ADB
:1410A600082D192D2A2D3B2D332322F40E94F70780E8682EF2
:1410BA000E94BB0902C00E94F0090E940F0A089500811181F4
:1410CE0022813381C6F70E949A09A9F380E83827F2CF082D5C
:1410E200192D2A2D3B2D4C2C5D2C6E2C33233AF70E94F70733
:1410F60080E8682EE2CFFA93EA93EC2FFD2F32960E9416085E
:14110A00E991F99124960895FA93EA93EC2FFD2F32960E94BB
:14111E001608E991F9913B832A83198308830895FA93EA9362
:14113200EC2FFD2F32960E941408E991F991249608954A92A5
:141146005A926A928A930E94A20911F15520E2F08FE148162C
:14115A00C0F487E14816D1F058F4419489EE481A05C03595BD
:14116E002795179507954A94D1F70EC087E1481A000F111FEC
:14118200221F331F4A94D1F705C03FE7232F132F032F04C0AB
:14119600662011F00E94F707899169905990499008956894B0
:1411AA0001C0E8942227332746F017FD209517FD309503C0B6
:1411BE00689401C0E8944A925A926A928A9387E1482E5524AC
:1411D200662436F0332322F40E94F70780E8682E0E94BB09E9
:1411E60089916990599049900895FA93EA93EA81FB8127D09B
:1411FA00E991F99122960895FA93EA93EC2FFD2F32961DD082
:14120E00E991F99124960895FA93EA93EA81FB8114D0E99122
:14122200F991398328831A930A930895FA93EA93EC2FFD2F8F
:14123600329607D0E991F9913B832A831983088308950A9236
:14124A001A922A923A920E94000A3A932A931A930A9300815B
:14125E001181228133810E94A20909F457C0E62CD52CC42C2F
:14127200B32EA22E912E802E09911991299139910E94A20935
:14128600A1F16E244C185D0880E8481653060CF033C081E8F0
:14129A0048168FEF58060CF436C080E23324232E122E012E97
:1412AE00302F22271127002726941794079437952795000F8E
:1412C200111F221F331F001C111C221C331C28F00818190826
:1412D6002A083B0804C0080C191C2A1C3B1C0AF001608A956B
:1412EA0051F70E94BB090E940F0A3990299019900990089526
:1412FE000FEF102F2FE73FE7662099F30E94F707F0CF0027CB
:14131200102F202F302FEBCF0991199129913991EDCF0FD0BD
:1413260029F0662011F00E94F70798940895002329F4112336
:14133A0019F4222309F433230895F7DF99F08A93632E80E8E8
:14134E006822220F331F432E8FE7481A55248827580A2695F0
:1413620030E8232B33278991989408954424552466240895CC
:14137600DEDF09F40895AA93BA93D2019A938A938EE790E080
:14138A00332349F03695279517950795A817B907CCF411960B
:14139E00F5CF8095909501962223BAF0000F111F221FA81778
:1413B200B90714F01197F6CF002711272227332789919991B0
:1413C6002D01B991A991089533270FEF102F2FE7322F89919C
:1413DA0099912D0102C0AA93BA93A7DF49F0D201A158BF4FC2
:1413EE002D01342D220F369527953629B991A99108954A9248
:141402005A926A927A928A929A92AA92BA92CA92DA92EA92CE
:14141600FA928A939A93089599918991F990E990D990C99047
:14142A00B990A99099908990799069905990499008950E94E7
:14143E00000AAA93BA930E94A209E1F1E62CD52CC42CB32E03
:14145200A22E912E802E00811181228133810E94A20971F130
:141466006E244C0C5D1C80E84816530664F581E848168FEF52
:14147A0058066CF1A29EB12DA02D919E912D802DA09E800D53
:14148E00911DA31FB31F829E800D911DA31FB31F929E900D4C
:1414A200A11DB31FA19E900DA11DB31F2B2F1A2F092F880FC8
:1414B600001F111F221F331F0E94BB09B991A9910E940F0A9B
:1414CA0008950FEF102F2FE78FE7482EF5CF0027102F202FB9
:1414DE00302FF0CFFA93EA93EA81FB810E941E0AE991F9911D
:1414F20022960895FA93EA93EC2FFD2F32960E941E0AE99134
:14150600F99124960895FA93EA93EA81FB810E941E0AE991BB
:14151A00F991398328831A930A930895FA93EA93EC2FFD2F94
:14152E0032960E941E0AE991F9913B832A83198308830895E4
:00000001FF
